:20C000002182B240805A2001E2C22100E2D22200E2E2210081430000814302008193020070
:20C02000F723B19010270000F32F915300008163020081930200EC23B19010270000E82FCE
:20C04000F43F31400004B01264C00C43B01200C01C43B0125EC032D01000FD3F0343034368
:08C06000FF3F03431C43304184
:02FFDE00FFFF23
:02FFE00056C009
:02FFE40056C005
:02FFE60056C003
:02FFEA0056C0FF
:02FFEC0056C0FD
:02FFEE0056C0FB
:02FFF00056C0F9
:02FFF20056C0F7
:02FFF40056C0F5
:02FFF60056C0F3
:02FFF80056C0F1
:02FFFA0056C0EF
:02FFFC0056C0ED
:02FFFE0042C0FF
:00000001FF
